:020000040800F2
:10400000000400201D4300081F4300081F43000850
:104010001F4300081F4300081F4300081F430008F8
:104020001F4300081F4300081F43000829A8000879
:104030001F4300081F4300081F4300081F430008D8
:104040001F4300081F4300081F4300081F430008C8
:104050001F4300081F4300081F4300081F430008B8
:104060001F4300081F4300081F43000865C70008DE
:1040700079C700088DC70008A1C70008B5C70008A8
:10408000C9C70008DDC700081F4300081F43000818
:104090001F4300081F4300081F4300081F43000878
:1040A00051C5000855C50008B9C50008BDC50008C0
:1040B000C1C500081F4300081F4300081F43000834
:1040C0001F4300081F4300081F4300081F43000848
:1040D0001F4300081F4300081F4300081F43000838
:1040E0001F4300081F4300081F4300081F43000828
:1040F0001F4300081F4300081F4300081F43000818
:104100001F4300081F4300081F4300081F43000807
:104110001F4300081F4300081F4300081F430008F7
:10412000F1C7000805C8000819C800082DC8000814
:1041300041C800081F4300081F4300081F43000830
:104140001F4300081F4300081F4300081F430008C7
:1041500055C8000869C800081F4300081F4300082D
:104160001F4300081F4300081F4300081F430008A7
:104170001F43000835CC00081F4300081F430008F8
:104180001F4300081F4300081F4300081F43000887
:104190001F4300081F4300081F4300081F43000877
:1041A0001F4300081F4300081F4300081F43000867
:1041B0001F4300081F4300081F4300081F43000857
:1041C0001F4300081F4300081F4300081F43000847
:1041D0001F4300081F4300081F4300081F43000837
:1041E0001F4300081F4300081F4300081F43000827
:1041F0001F4300081F4300081F4300081F43000817
:1042000072B6374880F30888364880F30988364804
:104210003649086040F20000CCF200004EF63471DE
:10422000CEF200010860BFF34F8FBFF36F8F40F2F3
:104230000000C0F2F0004EF68851CEF20001086096
:10424000BFF34F8FBFF36F8F4FF00000E1EE100A06
:104250004EF63C71CEF200010860062080F314880F
:10426000BFF36F8F04F068F804F068F84FF0553032
:104270001F491B4A91423CBF41F8040BFAE71D4914
:10428000184A91423CBF41F8040BFAE71A491B4A0D
:104290001B4B9A423EBF51F8040B42F8040BF8E75F
:1042A00000201849184A91423CBF41F8040BFAE734
:1042B00004F028F904F024F9144C154DAC4203DA4B
:1042C00054F8041B8847F9E706F0FAFA114C124D2E
:1042D000AC4203DA54F8041B8847F9E704F011B93B
:1042E00000040020000C00200040000808ED00E061
:1042F000000000200004002074EC0008000C0020E6
:10430000440E0020480E0020FC440020004200081B
:1043100000420008004200080042000870E700F078
:1043200000F8FEE72DE9F04F2DED108AC1F80CD012
:10433000C3689D46BDEC108ABDE8F08F002383F36F
:1043400011882846A047002006F00CFAFEE706F088
:10435000B1F900DFFEE700000000000000000000EF
:1043600001F0FF01102A2BDB10F0070F08D010F826
:10437000013B013A8B422DD010F0070F42B3F6D12A
:10438000F0B441EA012141EA014122F007047FF043
:1043900000070023F0E80256083C85EA010586EA9A
:1043A000010685FA47F5A3FA87F586FA47F6A5FAD6
:1043B00087F68EB9EED1F0BC01F0FF0102F00702E2
:1043C00032B110F8013B013A83EA010313B1F8D18D
:1043D0000020704701387047002D06BF354603386E
:1043E000073815F0010F07D1013015F4807F02BFA7
:1043F000013015F4C03F0130F0BC0138704700BFF8
:1044000053B94AB9002908BF00281CBF4FF0FF313B
:104410004FF0FF3000F062B9ADF1080C6DE904CE49
:1044200000F006F8DDF804E0DDE9022304B070478F
:104430002DE9F047089F154604468C461E46002B82
:1044400040F0CB808A4248D9B2FA82F149B1C1F139
:1044500020030CFA01FC20FA03F38D4043EA0C0C14
:104460008C404FEA154EA8B2BCFBFEF8230C0EFBA5
:1044700018CC08FB00F943EA0C43994529D9EB18FD
:1044800008F1FF3204D2994502D9A8F102022B4467
:10449000A3EB0903A4B2B3FBFEFC0EFB1C330CFB25
:1044A00000F044EA0344A04215D92C190CF1FF3363
:1044B00004D2A04202D9ACF102032C44241A43EAEC
:1044C00002401FB1CC4000233C607B603146BDE818
:1044D000F0874246DCE76346F0E7002A73D0B2FA81
:1044E00082F3DBB31E46C6F1200302FA06F521FA79
:1044F00003F2B14020FA03F30B434FEA154E00FAE2
:1045000006F4B2FBFEF1A8B20EFB112C1A0C01FB53
:1045100000F842EA0C42904557D9AA1801F1FF3C35
:1045200004D2904502D9A1F1020C2A44A2EB080260
:104530009BB2B2FBFEF10EFB1122484343EA024359
:10454000984244D9EB1801F1FF3203D2984201D9C5
:104550008A1E2B441B1A42EA0C4201E08B1A0122EC
:104560004FEA154EA8B2B3FBFEFC210C0EFB1C3328
:104570000CFB00F841EA034398452AD9EB180CF1EB
:10458000FF3104D2984502D9ACF102012B44A3EBD0
:104590000803A4B2B3FBFEFC0EFB1C330CFB00F0C3
:1045A00044EA0344A04216D92C190CF1FF3304D27B
:1045B000A04202D9ACF102032C44241A43EA014080
:1045C000314616467DE71F268DE78C46AEE70A4644
:1045D000C0E76146DBE76346EFE78B4206D917B9D0
:1045E0000026304672E7C7E90001F9E7B3FA83F61F
:1045F00086B98B4201D3824207D8841A61EB030348
:1046000001209C461FB9002660E73046FAE7C7E95B
:10461000004CF8E7C6F1200CB34022FA0CF41C431E
:1046200020FA0CF521FA0CF3B14029434FEA144962
:1046300000FA06F5B3FBF9F81FFA84FE09FB1830FF
:104640000B0C08FB0EFA43EA00439A4502FA06F205
:1046500040D9E31808F1FF3004D29A4502D9A8F1F5
:1046600002002344A3EB0A0389B2B3FBF9F809FB68
:10467000183308FB0EFE41EA03418E452CD9611820
:1046800008F1FF3304D28E4502D9A8F10203214478
:1046900043EA0040A0FB0298A1EB0E014145CE4643
:1046A000434602D306D14D4504D2B9EB020E68EB66
:1046B00004030138002FA6D0B5EB0E0261EB030115
:1046C00001FA0CFC22FA06F34CEA0303F140C7E9B5
:1046D000003198E74046C5E74346D9E7704700BF39
:1046E000034A0123118883400B431380704700BFA6
:1046F0000E430020034A01238340108820EA030070
:10470000108070470E43002037B5ADF80400C0F3A9
:10471000072005281DD89DF804300F2B19D803EB6E
:104720000010012503F007039D400B4BC0F3CF00A1
:1047300003EB8003013B002013F8014F21FA00F244
:1047400042F3000262402A400130544004281C70A9
:10475000F2D103B030BD00BFBC42002013B5ADF8AC
:104760000400C0F3072005281AD89DF804300F2B49
:1047700016D80C4C03EB0010C0F3CF00002204EB62
:10478000800403F007011046A35CCB4003F0010353
:10479000934001321843042AC0B2F5D102B010BDD3
:1047A0000020FBE7BC42002030B5084D01242B88D7
:1047B00004FA01F104FA00F0084381B21840944071
:1047C00081420CBF2343A3432B8030BD0E43002006
:1047D000F0B50D4B0D4C1B7826780D4CB34201D132
:1047E0000020F0BD04EBC3056F788F4206D114F8AA
:1047F0003370874202D16D79954203D1013303F0C2
:104800000703EBE70120ECE71743002016430020E5
:1048100018430020054B064A1B7812789A4200D1B3
:104820007047013303F00703F8E700BF1743002088
:104830001643002010B5154B1B7823B1144B93F988
:104840000030002B15DB134900224FF0FF3311F825
:10485000014FA04219D0B3F1FF3F01D104B953B2C7
:104860000132062AF3D15A1C0FD00B4A1344987018
:104870000BE0EF2809D8084A02EBD0020123917817
:1048800000F0070083400B43937010BDE40D00203F
:1048900060430020711100207011002010B5114BF1
:1048A0001B7823B1104B93F90030002B0CDB0F4A1F
:1048B0000623002112F8014F013B844208BF11700A
:1048C00013F0FF03F6D10CE0EF280AD8084B03EBF6
:1048D000D00301219A7800F00700814022EA01020A
:1048E0009A7010BDE40D002060430020711100207B
:1048F0007011002010B50A490B7823EA000010F06F
:10490000070408700BD1984209D0064B5B785B070F
:1049100005D5C008FFF7EEFE034B0C701C8010BDE0
:10492000114300206043002012430020024A137804
:1049300023EA00031370704709430020034A1378E9
:104940001BB100231370024A1380704708430020F4
:1049500014430020E7284FD8DF2807D8312864D037
:104960000ED8292857D02A2866D07047A0F1E00336
:10497000072B41D8DFE803F01540232831403C41A4
:10498000392804D0822802D035283FD07047324BD6
:104990001A7892071FD15B7813F0080F18BF2920EF
:1049A00070472D4A1378D9074DD4527812F0010F71
:1049B00022D013F0100F14BF0020E3207047264BC5
:1049C0001B7813F0040FF3E7234A137859073CD4FC
:1049D0005278D207EDD5E02070471F4B5A789107E7
:1049E0000AD51B7813F0100F14BF0020E720704782
:1049F000194B1B781A07F5D47047174A1378190713
:104A000025D452789107EDD5E4207047124B1B78DE
:104A100013F0200FC2E7104B1A78920619D45B7876
:104A200013F0080F18BF392070470B4B1B7813F099
:104A3000400F18BF2A207047074B1B7813F0400F18
:104A400018BF3120704739207047E2207047E620B8
:104A500070473520D0E700BF6043002030B52F4DB0
:104A60002B785A0711D500F0140100F018020C1F22
:104A70006142A2F1080C6141DCF1000242EB0C0240
:104A800080F00C04914218BF2046190713D500F09E
:104A9000140400F01801A4F1140CA1F11802DCF1C7
:104AA000000444EB0C045142514180F00C02D2B29C
:104AB0008C4218BF10466D78E90713D500F0110439
:104AC00000F0180104F1FF3CA1F10802DCF1000440
:104AD00044EB0C045142514180F00902D2B28C42A5
:104AE00018BF1046AA0711D500F0110400F01801F4
:104AF000A4F111025442A1F118055441694280F019
:104B000009026941D2B28C4218BF104600F0E70298
:104B100013F0100F18BF104630BD00BF60430020D7
:104B200038B5FFF717FFB0F5A44F04463FD2B0F5F4
:104B3000A04F80F0A680DF2816D8CC2800F286800F
:104B4000A7280AD8A42874D8012804D0031F9BB230
:104B5000A12B28BF0024204638BDA0F1A8039BB29A
:104B60001A2B6BD90024F6E7B0F5804F16D2B0F5BA
:104B7000005F80F09880E728EDD9A0F580739BB2A4
:104B8000B3F5F85FEED2C0F30720FFF767FF0546E5
:104B9000E0B2FFF7DFFE40EA0524DCE7C0B2FFF732
:104BA000D9FE04F47064204340F42044D3E7B0F508
:104BB000A54F21D245F25F23984251D845F23F23B9
:104BC00098420ED845F21F23984242D800F00304C1
:104BD0000123A340C0F3850243EA421343F40D448A
:104BE000B9E700F003040123A340C0F3820243EAC3
:104BF000421343F40C44AEE745F2BF2398420AD86F
:104C000045F29F23984200F01F0034D84AF2F40383
:104C100043EA00249FE7A0F5A543403B9BB21F2B2E
:104C2000A0D8040204F4F85444F4204444F0F004FE
:104C300091E7A0F1240444F480448CE758341F4BDE
:104C4000E4B233F8144044F4884484E740F4A044C8
:104C500081E700F01F044AF2F10343EA04247AE7F3
:104C600000F003040123A340C0F3820243EA42138D
:104C700043F40A446FE7FFF7F1FE040244F40054E2
:104C800069E700F01F00FFF7E9FE03B21A0112B254
:104C900010F0100FC4F3431418BF134643EA042363
:104CA00043F4104457E7C0F30420FFF7D7FE05464E
:104CB000E0B2FFF74FFE40EA0524DFE72CE90008E9
:104CC000002070470020704730BFFDE700EB400335
:104CD000C3EB031300EB830003B2002B07DA803B26
:104CE00018B2002800DAFF30001240B2704780305E
:104CF000FAE700000E4B1B78D90710D49A0710D49E
:104D00005B0712D40B4B187868B11D280DD800EB47
:104D1000800000011E23B0FBF3F0C0B270471420E6
:104D2000FBE72820F9E70820F7E75020F5E700BF68
:104D3000EC420020EE4200200E4B1B78D9070FD426
:104D40009A070FD45B0711D40B4B187860B1272852
:104D50000CD8C0002823B0FBF3F048B1C0B27047B4
:104D60000220FBE70420F9E70120F7E70820F5E738
:104D700001207047EC420020ED42002008B5A0F170
:104D8000CD03122B10D8DFE803F00A1013192E2ED2
:104D90002E2E2E2E2E2E1C21252B363C4100FFF7C9
:104DA000A9FF40421C4BD87008BDFFF7A3FFF9E7ED
:104DB000FFF7A0FF4042184B9870F5E7FFF79AFF06
:104DC000F9E7FFF7B9FF144B1871EDE7FFF7B4FFF0
:104DD0004042F8E7FFF7B0FF40420F4B5871E3E75E
:104DE000FFF7AAFFF9E70C4AD13851780123834035
:104DF0000B435370D8E7094A137843F0010313704B
:104E0000D2E7064A137843F00203F8E7034A13781F
:104E100043F00403F3E700BFEF420020EC42002020
:104E2000414BCD2893F9032012D1002A01DA002248
:104E3000DA709A78D9780A4352B20AB93B490A70B3
:104E40001A795B7913435BB20BB9394A1370704717
:104E5000CE2802D1002AEADCEBE7CF2893F9022022
:104E600004D1002AE5DA00229A70E2E7D02802D1C4
:104E7000002AF8DCDDE7D92893F9042004D1002AC0
:104E8000D7DD00221A71D4E7DA2802D1002AD0DA5D
:104E9000F7E7DB2893F9052004D1002AC9DA0022BC
:104EA0005A71C6E7DC2802D1002AF8DCC1E7D13804
:104EB0000E28BED801A252F820F000BFF94E00081B
:104EC000F94E0008F94E0008F94E0008F94E0008A6
:104ED000F94E0008F94E0008F94E0008334E00085C
:104EE000334E0008334E0008334E0008074F0008C9
:104EF000134F00081D4F00085A780121814022EA13
:104F000001025A7095E70B490A7822F001020A70F3
:104F10008FE708490A7822F00202F8E705490A7883
:104F200022F00402F3E700BFEF420020EE4200202F
:104F3000ED420020EC42002010B50C4C237993B9CF
:104F4000302282F311880A4A0A48D1699360486086
:104F500000F1883048600B610221117183F31188E0
:104F60000120207110BD0220FCE700BFC8400020D6
:104F7000D0400020230167450A4A13797BB13023D2
:104F800083F311880849C869036943F0800303610A
:104F900001200871002383F31188137170470220E8
:104FA000704700BFC8400020D040002073B5094BB7
:104FB0001D68CB43ADF80630074B411918680368EC
:104FC0000222DC680DF10603A047B0FA80F0400928
:104FD00002B070BD700C0020F040002038B5074BC7
:104FE0001C68074B0444186803685B680D469847C3
:104FF00043691B5BDB432B80012038BD700C002014
:10500000F040002030B52C4A85B0C0F3074310F4BF
:105010007F4FD25C0190C0F3072549D09DF8044032
:10502000FF2304EB4400591B4000B0FBF3F04FF6A4
:10503000AB7310FB03F303EB440303EB4303DBB25B
:1050400015FB03F4C3F1FF0313FB05F324121B123A
:10505000C4F1FF04C3F1FF0311FB02F114FB02F4DE
:1050600013FB02F3091224121B1206281BD8DFE8D7
:1050700000F004061311161A040014461A46D2B2A0
:10508000002062F30700E4B264F30F2061F31740DD
:1050900005B030BD134622460C461946EFE71C46C4
:1050A00013460A46F9E713460A4621461C46E6E738
:1050B00011461446E3E700BFF8E40008012810B5E4
:1050C00001D8C0B210BDB0F5F75F9DBF42090832EC
:1050D000D2B2FF2201218B185B1003FB03F4A4B2B0
:1050E000844206D9013BDAB29142F4D90139C8B2FF
:1050F000E8E7FF2B02D00133D9B2F5E71846E1E724
:10510000064B188800EB402200EB820000F5585057
:105110001930188000EB1020C0B27047680C0020D6
:10512000430610B54CBF80F0FF0303460E4C48BF4A
:1051300003F00F02C3F3011304EB430158BF00F067
:105140000F02497814F8133048BF013211FB02F204
:1051500003EB1213DBB25A4210F0800FD2B218BF29
:10516000134683F0800010BDF0E4000810B504463B
:1051700010B9C90FC80110BD80EAE073A3EBE0735A
:1051800000291AB201FA83F30DDB891A490191FB58
:10519000F3F1C1F12001C8B24342DBB230EA24008E
:1051A00028BF1846E7E75B01521A93FBF2F3C3F1FD
:1051B0006003D8B2F0E700003031154B13F811301E
:1051C0004FF0E40113FB01F3C2EB132384B01C3353
:1051D000002B0190B8BF5B42C0F30720A0EBC303D4
:1051E0001BB223EAE37313FB00F31B128DF80530A7
:1051F000019B0020DAB262F30700C3F3072262F3D7
:105200000F20C3F3074363F3174004B0704700BF98
:1052100088E700083031154B13F811304FF0E401E6
:1052200013FB01F3C2EB132384B01C33002B01905A
:10523000B8BF5B42C0F30740A0EBC3031BB223EA35
:10524000E37313FB00F31B128DF80630019B002063
:10525000DAB262F30700C3F3072262F30F20C3F34D
:10526000074363F3174004B0704700BF88E70008A6
:1052700030B585B0C0F3072501901046EC1AFFF752
:1052800075FFC0EB801300EB83000444E4B214FB11
:1052900005F424128DF80540019B0020DAB262F378
:1052A0000700C3F3072262F30F20C3F3074363F33E
:1052B000174005B030BD30B585B0C0F3074501904B
:1052C0001046EC1AFFF752FFC0EB801300EB83008F
:1052D0000444E4B214FB05F424128DF80640019B4B
:1052E0000020DAB262F30700C3F3072262F30F2053
:1052F000C3F3074363F3174005B030BD30B585B045
:10530000C0F3072501909DF820001B1A1046EC18E9
:10531000FFF72CFF241AE4B214FB05F424128DF8D5
:105320000540019B0020DAB262F30700C3F30722B5
:1053300062F30F20C3F3074363F3174005B030BD9A
:1053400030B585B0C0F3074501909DF820001B1AC9
:105350001046EC18FFF70AFF241AE4B214FB05F418
:1053600024128DF80640019B0020DAB262F3070098
:10537000C3F3072262F30F20C3F3074363F317401D
:1053800005B030BD84B001908DF80420019B002051
:10539000DAB262F30700C3F3072262F30F20C3F30C
:1053A000074363F3174004B07047000030310B4BE4
:1053B00013F8113084B09B1A01908DF80430019BD2
:1053C0000020DAB262F30700C3F3072262F30F2072
:1053D000C3F3074363F3174004B0704788E700083E
:1053E0000C4B03EB410384B093F8613001909B1A9E
:1053F0008DF80430019B0020DAB262F30700C3F39A
:10540000072262F30F20C3F3074363F3174004B08E
:10541000704700BF88E7000830B5134D303105EB09
:10542000410385B05B780190A3F12004C3F1200310
:105430005BB264B234EA240428BF1C4615F811306C
:105440009B1A234403448DF80430019B0020DAB2F8
:1054500062F30700C3F3072262F30F20C3F307438D
:1054600063F3174005B030BD88E7000884B003EB54
:1054700043039DF81020019002EB53038DF8043094
:10548000019B0020DAB262F30700C3F3072262F344
:105490000F20C3F3074363F3174004B070471FB5F1
:1054A000019048B2494249B230EA200028BF08467C
:1054B0005243C0F1380010FB002080B21C46FFF7B9
:1054C000FDFD00EB400004448DF80440019B0020EA
:1054D000DAB262F30700C3F3072262F30F20C3F3CB
:1054E000074363F3174004B010BD1FB50190104689
:1054F0001C46FFF73BFE20448DF80400019B002072
:10550000DAB262F30700C3F3072262F30F20C3F39A
:10551000074363F3174004B010BD1FB501909DF819
:1055200018001C1A1046FFF721FE241A8DF80440BB
:10553000019B0020DAB262F30700C3F3072262F393
:105540000F20C3F3074363F3174004B010BD0000FE
:105550001FB5124C0190303304EB430014F81330A4
:105560004078703B4B43203802FB0032002A9DF804
:105570000430B8BF7F3203EBE2138DF80430019B97
:105580000020DAB262F30700C3F3072262F30F20B0
:10559000C3F3074363F3174004B010BD88E7000866
:1055A0001FB5124C0190303304EB430014F8133054
:1055B0004078703B4B43203802FB0032002A9DF8B4
:1055C0000430B8BF3F3203EBA2138DF80430019BC7
:1055D0000020DAB262F30700C3F3072262F30F2060
:1055E000C3F3074363F3174004B010BD88E7000816
:1055F00030B53033174C04EB430514F813406D7885
:10560000A4F17003C4F1700464B25BB233EA230303
:1056100028BF2346C3F138034B43203D02FB05322C
:1056200085B012EB420248BF7F32019000EBE210DE
:105630008DF80400019B0020DAB262F30700C3F387
:10564000072262F30F20C3F3074363F3174005B04B
:1056500030BD00BF88E7000830B585B00446019032
:10566000104601F13005FFF75BFD114B13F81530C3
:1056700018440206A0F180035CBF6FF07F031B1A81
:105680005B0003F0FE0303EB430304EB93148DF87C
:105690000440019B0020DAB262F30700C3F3072243
:1056A00062F30F20C3F3074363F3174005B030BD27
:1056B00088E700081FB5124B0190303113F8111024
:1056C0008B1ADCB213F0800FA2EB0102D2B208BF3A
:1056D000224602EB420242F3571202448DF80420A4
:1056E000019B0020DAB262F30700C3F3072262F3E2
:1056F0000F20C3F3074363F3174004B010BD00BF8E
:1057000088E7000884B0C9430190C9B2C0F30740DC
:1057100011FB00F109128DF80610019B0020DAB28E
:1057200062F30700C3F3072262F30F20C3F30743BA
:1057300063F3174004B0704784B0C9B2C1F182016D
:1057400001900029A8BF40188DF80400019B00209B
:10575000DAB262F30700C3F3072262F30F20C3F348
:10576000074363F3174004B0704784B003EB830230
:10577000BDF81030019013449BB2FF2B28BFFF23CC
:10578000C0F30740DB4350FA83F3FF2B28BFFF230E
:105790008DF80630019B0020DAB262F30700C3F3F4
:1057A000072262F30F20C3F3074363F3174004B0EB
:1057B00070471FB50029B8BF4942002AB8BF5242FE
:1057C00009B2090112B2FF294FEA0212BDF81840CE
:1057D0000190A8BFFF21FF2AA8BFFF22234409B2DE
:1057E00012B29142D4BF5B189B189BB2FF2B28BF0B
:1057F000FF23C0F30740DB4350FA83F3FF2B28BF9E
:10580000FF238DF80630019B0020DAB262F3070017
:10581000C3F3072262F30F20C3F3074363F3174078
:1058200004B010BD1FB5482B0190C0F3074030D81D
:10583000BDF81840E31A9BB2FF2B28BFFF230831A5
:1058400089B2102905D902F1080189B2112928BFAE
:10585000FF231149DB4350FA83F3002A4978B8BF8C
:105860000332FF2B01EBA20228BFFF238DF8042097
:105870008DF80630019B0020DAB262F30700C3F313
:10588000072262F30F20C3F3074363F3174004B00A
:1058900010BDFF23D3E700BF0043002084B0C0F356
:1058A0000741BDF810200190D31A9BB2FF2B28BFEF
:1058B000FF23DBB283F0FF021144FF29034428BF1A
:1058C000FF218DF804308DF80610019B0020DAB21C
:1058D00062F30700C3F3072262F30F20C3F3074309
:1058E00063F3174004B0704784B0BDF810200190F6
:1058F000D21A92B2FF2A28BFFF22C0F30740D24338
:1059000050FA82F2FF2A28BFFF228DF80620019B61
:105910000020DAB262F30700C3F3072262F30F201C
:10592000C3F3074363F3174004B07047024B1A7880
:1059300010431870704700BF0041002000F04ABCBF
:105940002DE9F04FDFF8F080384E98F800403279BA
:10595000374F04EB840304EB43046400E4B28DB0DE
:1059600004F11605EBB21D466C2B0393314B0590E9
:105970001B884FEA520202FB03F328BF6C25C3F3D6
:105980000723AB460493A7F1D809A7F1D70AE3B2DE
:105990009B4507D8039B6B2B8CBF002001200DB0CB
:1059A000BDE8F08F98F801303A5D1A423CD01AF801
:1059B000143019F81400203B9AB270385B4381B25E
:1059C00000FB003080B207910692FFF777FB049A44
:1059D000009296F801C096F803E0BDF91820BDF9D1
:1059E0001C10059D0346B0784CEA002040EA0E40AA
:1059F000A8478DF82400C0F30723C0F307408DF8B3
:105A000026008DF82530099BADF828301B0C8DF849
:105A10002A300A98FFF7F6FAC0F30743C2B2C0F380
:105A200007212046FFF78AFF0134B0E7004300203A
:105A3000C0E80008C01F0020640C00202DE9F04FD2
:105A4000DFF8D080304E98F8004032792F4F04EBC9
:105A5000840304EB43046400E4B289B004F1160546
:105A6000EBB21D466C2B0193294B03901B884FEA28
:105A7000520202FB03F328BF6C25C3F30723AB4696
:105A80000293A7F1D709A7F1D80AE3B29B4507D83B
:105A9000019B6B2B8CBF0020012009B0BDE8F08F6B
:105AA00098F801303A5D1A422BD0B378707896F8A6
:105AB00003C019F814201AF81410039D40EA0320BB
:105AC000203A7039029B40EA0C40A8478DF8140038
:105AD000C0F30723C0F307408DF816008DF815308A
:105AE000059BADF818301B0C8DF81A300698FFF79F
:105AF00089FAC0F30743C2B2C0F307212046FFF77B
:105B00001DFF0134C1E700BF00430020C0E80008CA
:105B1000C01F0020640C00202DE9F04F2C4EDFF850
:105B2000B89034782B4ADFF8B4B0158804EB8403BE
:105B300004EB4304640099F80430E4B204F116085D
:105B40005FFA88F89B08B8F16C0F03FB0555C24655
:105B500085B0074628BF4FF06C0AC5F30725E1B2B0
:105B60008A4507D8B8F16B0F8CBF0020012005B023
:105B7000BDE8F08F73781BF804201A4226D099F8FC
:105B8000022099F8013099F8030043EA022343EA1E
:105B900000402A46B8478DF80400C0F30723C0F33D
:105BA00007408DF806008DF80530019BADF80830F0
:105BB0001B0C8DF80A300298FFF724FAC0F3074354
:105BC000C2B2C0F307212046FFF7B8FE0134C6E792
:105BD000640C0020C01F002000430020C0E8000823
:105BE0002DE9F04FDFF8D880334F98F80040DFF808
:105BF000D4A004EB840304EB43046400E4B28BB050
:105C000004F11606F3B26C2B1E4603932B4B059042
:105C10001D883B794FEA930303FB05F5C5F3072580
:105C200005F14000C0B228BF6C26FFF779FA803832
:105C30004FFA80FB2846FFF773FA803843B2B1462B
:105C40000493E3B2994507D8039B6B2B8CBF0020CC
:105C500001200BB0BDE8F08F98F801201AF804106D
:105C6000114227D00095BA78787897F803C0059E3E
:105C700040EA02205946049A40EA0C40B0478DF8A9
:105C80001C00C0F30723C0F307408DF81E008DF8F9
:105C90001D30079BADF820301B0C8DF82230089882
:105CA000FFF7B0F9C0F30743C2B2C0F307212046A3
:105CB000FFF744FE0134C4E700430020C01F00206A
:105CC000640C0020C0E800082DE9F04FDFF80481E3
:105CD0003E4D98F80040DFF800A1DFF8009104EB9A
:105CE000840304EB43046400E4B22B7904F1160648
:105CF000F6B287B001336C2EB346019028BF4FF047
:105D00006C0BFF2B28BFFF234FF6FF77B7FBF3F792
:105D1000E1B28B4506D86B2E8CBF0020012007B066
:105D2000BDE8F08F98F801301AF804201A423BD0F1
:105D300099F800302648013B5BB21A0636D53A4640
:105D400029796B78E8780131FF2928BFFF21514379
:105D5000AA7843EA0223C1F30F2143EA0040019BE2
:105D600098478DF80C00C0F30723C0F307408DF867
:105D70000E008DF80D30039BADF810301B0C8DF824
:105D800012300498FFF73EF9C0F30721C0F3074330
:105D90008DF814008DF815108DF81630C2B2DBB2F4
:105DA000C9B22046FFF7CAFD0134B1E7C25C8A429E
:105DB0000AD103F10C0209EB420292F801C0927879
:105DC0004CEA02229742BBD8013BB6E700430020D1
:105DD00012410020640C0020C0E8000801410020AE
:105DE0002DE9F04F514BDFF85C911C7804EB8403F4
:105DF00004EB43046400E4B24D4B04F116078DB08C
:105E0000FFB21B7806916C2FBB46824628BF4FF02D
:105E10006C0B0293E3B29B4506D86B2F8CBF00201E
:105E200001200DB0BDE8F08F404B19F804205B78DD
:105E30001A4233D03F493E4E032209A807F034FFEF
:105E4000630004933C4B03EB4403D04656440025C7
:105E50000593029A5FFA88F39A4221D8374BDB7890
:105E600013FB05F31B128DF82630099BADF8283083
:105E70001B0C8DF82A300A98FFF7C4F8C0F30721ED
:105E8000C0F307438DF82C008DF82D108DF82E30BF
:105E9000C2B2DBB2C9B22046FFF750FD0134B9E708
:105EA000059B049A187816F8013FC01A244B9B5C96
:105EB000327A9B1A9AB25B4381B200FB003080B207
:105EC00007910392FFF7FAF803461C48184A90F826
:105ED00004C0BDF91C1008F10C0002EB400E0CF1DF
:105EE000010C9EF801009EF802E08DF82650BCF1EE
:105EF000FF0F40EA0E2028BF4FF0FF0C00FB0CFC08
:105F0000CCF30F20069D0090BDF90C200998A847FE
:105F1000C0F307238DF82400C0F307408DF8253027
:105F20008DF82600C5B208F1010892E7640C002044
:105F30000141002001430020E8E700080043002061
:105F4000E9E70008C0E80008F7B51B4B1B4A03440B
:105F5000527893F83831134204462AD0184B5978B6
:105F60009E78DD78FFF7CCF84FF4B47201F1B403FA
:105F7000B3FBF2F702FB17335B1A48BF033343F35B
:105F80008F0300F0030003FB00118DF800108DF863
:105F900001608DF802500098FFF734F8C0F3074312
:105FA000C2B2C0F30721204603B0BDE8F040FFF7BE
:105FB000C5BC03B0F0BD00BF88E70008640C00203A
:105FC0000043002013B5144B144A0344527893F84D
:105FD0003831134204461DD0FFF792F80146FFF70F
:105FE0008FF80F4B8DF8001040F35700DB788DF8D9
:105FF00002307F308DF801000098FFF703F8C0F3FE
:106000000743C2B2C0F30721204602B0BDE81040EA
:10601000FFF794BC02B010BD88E70008640C0020B4
:106020000043002000F0F2B808B5074B074A18708B
:10603000074B1B78C3F30003137000F037FD054BCB
:1060400003221A7008BD00BF630C0020620C002000
:1060500000430020E50D00200D4A03461078C007DC
:1060600010B413D573B12C2B0ED803F07F03147822
:1060700063F34704074B147000221A7010BC0846E3
:10608000FFF754BC0123F2E72C23F0E710BC704764
:1060900000430020E50D0020054B1878C0F34600B2
:1060A0000130C0B201212D2828BF0846FFF7D4BF18
:1060B00000430020064B1878C0F34600013810F06A
:1060C000FF004FF0010108BF2C20FFF7C5BF00BF44
:1060D0000043002030B4084C2578ED0709D5802A0C
:1060E00028BF80226070A170E270184630BCFFF7B4
:1060F0001DBC30BC704700BF0043002003494878F6
:10610000CA78897801230830FFF7E4BF00430020F4
:1061100004494878CA7889780838012380B2FFF7A3
:10612000D9BF00BF0043002005488178C27840787D
:106130001031FF2928BFFF210123C9B2FFF7CABFD1
:106140000043002005488178C2784078103921EA60
:10615000E1710123C9B2FFF7BDBF00BF00430020BA
:106160000548C278817840781032FF2A28BFFF2284
:106170000123D2B2FFF7AEBF004300200548C2782A
:1061800081784078103A22EAE2720123D2B2FFF716
:10619000A1BF00BF00430020044A13791033FF2B36
:1061A00028BFFF2301201371FFF7C0BB004300206D
:1061B000044A1379103B23EAE37301201371FFF7BC
:1061C000B5BB00BF00430020014B00221A7070478E
:1061D000301E0020F0B50B4C00EB4006A5196F787F
:1061E0008F4205D1A65D964202D1AD789D4208D07E
:1061F000054D00EB400001262E70251822546970D1
:10620000AB70F0BDEC1C0020301E002070B51346B2
:1062100005460E4600242046324629460134FFF743
:10622000D9FF6C2CF7D170BD00B1104708470000B2
:10623000024B186808B1036818477047984200205D
:1062400008B5FFF7F5FF08BD0A4B07B51A8882426B
:106250000ED01880084B1B6853B103228DF805003F
:10626000000A8DF80600DB688DF8042001A8984725
:1062700003B000BDE6110020984200200B4B07B58B
:106280001A8882420FD01880094B1B685BB1042228
:106290008DF80500000A8DF80600DB688DF80420F3
:1062A0000DEB0200984703B000BD00BFE4110020D1
:1062B0009842002038B5302383F311884FF0804393
:1062C000124C1349586A23680A68C01A8242114A5C
:1062D0000AD9A3F58333E03B156823600E4B00F524
:1062E0008330EB18E030136008601568002181F3FB
:1062F00011880A4C0A4A4FF47A7CE0FB0C410023D7
:106300002046FEF77DF8284438BD00BFFC40002041
:10631000F8400020F440002088598F029F86010039
:10632000A0860100094A527808B553070AD5084BE0
:1063300041EAC0011970FEF7D3F9FFF7BBFF054B27
:10634000188008BDBDE80840FEF7CAB960430020C8
:10635000114300201243002008B5064A1378034277
:1063600007D023EA0000107008B1FFF7A3FF024B2B
:10637000188008BD084300201443002010B5FFF723
:1063800099FF0D4B9A78D9780A4352B20AB10B4A59
:1063900010801A7959790A4352B20AB1084A10801A
:1063A000084A126832B102211970BDE810409368A2
:1063B0000148184710BD00BFEF4200209042002066
:1063C0008E42002098420020BFF34F8F0549064BB4
:1063D000CA6802F4E0621343CB60BFF34F8F00BF83
:1063E000FDE700BF00ED00E00400FA0530B542EA29
:1063F000012422490D782249B4F5006F4FEA142098
:1064000081F8215081F85A5012D2A8B1431E062BB0
:1064100012D8DFE803F0042F1411111E2F00194ABF
:106420001223194842600360002A08BF104630BD9D
:10643000212811D0222816D000231A46F1E7E3B212
:10644000022BF9DC114A12499BB252F82320CB5C93
:10645000E7E7104A0A23E4E7022BEDD80E4A52F888
:1064600023200923DDE7022BE6D80C4A0C4952F819
:106470002320ECE7024A5B23D3E700BF7C0C00201B
:10648000070C00207AE10008DC110020ACE10008D4
:10649000A8E1000870E100089CE1000890E1000814
:1064A0008CE100087047000010B5064A064C1178D0
:1064B00024784B1C03F00F039C421EBF034C137047
:1064C000605410BD5941002058410020484100202F
:1064D00090F88610074A0229137807D1012B01D0C2
:1064E000072B05D1044B52781A707047024A13707B
:1064F000704700BFD8110020D7110020014B187839
:10650000704700BFD7110020704710B503461B68C5
:10651000984203D09C688A689442F8D25A680B600B
:106520004A601160596010BDC368C269013BC36015
:106530004369134482694361934224BF436A4361C0
:1065400000238362036B03B1184770470369196026
:10655000C268013AC260C26913448269036193420E
:1065600024BF436A036100238362036B03B11847AE
:10657000704700002DE9F04F89B005AB02930393FB
:10658000002301939DF80480302383F3118808F1E0
:10659000FF386D4C0122B8F1040F06D8DFE818F07F
:1065A0006F0083009700AB00BF006848102106F021
:1065B0006BF8664A102353832378002B59D1A0230C
:1065C00000BF013BFCD100BF00BF00BF00BF00BF48
:1065D00000BF00BF00BF00BF00BF00BF00BF00BFC3
:1065E00000BF00BF00BF00BF00BF00BF00BF00BFB3
:1065F00000BF00BF00BF00BF00BF00BF00BF00BFA3
:1066000000BF00BF00BF00BF00BF00BF00BF00BF92
:1066100000BF00BF00BF00BF00BF00BF00BF00BF82
:1066200000BF00BF00BF00BF00BF00BF00BF00BF72
:1066300000BF464B1F69A3F5A053BFB2D3F810A00B
:10664000D3F8105803F580631E6903F500631FFA41
:106650008AFB1B69ADB2B6B21FFA83F92022B8F1EA
:10666000040F77D8DFE818F015012601370148013B
:1066700059014FF4487300BF013BFCD1A3E73348F5
:10668000202106F001F8314A20235383237823B9CF
:10669000A02300BF013BFCD195E74FF4487300BF36
:1066A000013BFCD18FE72A48102105F0EDFF284A75
:1066B00010235383237823B9A02300BF013BFCD1CF
:1066C00081E74FF4487300BF013BFCD17BE72048D2
:1066D000202105F0D9FF1E4A20235383237823B9B4
:1066E000A02300BF013BFCD16DE74FF4487300BF0E
:1066F000013BFCD167E71648402105F0C5FF144A6D
:1067000040235383237823B9A02300BF013BFCD14E
:1067100059E74FF4487300BF013BFCD153E70C48E5
:10672000082105F0B1FF0A4A08235383237823B9CF
:10673000A02300BF013BFCD145E74FF4487300BFE5
:10674000013BFCD13FE700BF96430020001402400C
:10675000000002407948102105F096FF2378002BB5
:1067600040F09180A02300BF013BFCD1002383F3C4
:106770001188C6F380236FEA0A0A83F00103CAF383
:10678000C03AC6F3800282F0010243EA0A2343EAD8
:106790004203C6F3400282F0010243EA8203C6F3D9
:1067A000003282F0010243EAC203CBF3C02282F03E
:1067B0000102CBF3003B43EA02138BF0010BC7F35A
:1067C000801282F0010243EA4B13C7F3C01743EA79
:1067D000821387F00107C5F3802282F0010243EAA9
:1067E000C71343EA4223C5F3C02282F00102C5F376
:1067F000003543EA822385F00105C9F3800943EAA5
:10680000C52389F00109C6F3C00282F0010243EA00
:10681000093343EA4233C6F3001282F0010243EA2D
:106820008233B2061BB200F193806FEA43436FEAF2
:106830005343434ADFF804C1B2F902E0B2F90480DD
:10684000B2F90690B2F908A0B2F90AB03D4F3E4E37
:106850003E4ADCF8105038691169A2F580622EEAD0
:1068600005051269346928EA0000284329EA010174
:1068700001432AEA02020A432BEA0404224312B229
:10688000002AE5D167E04FF4487300BF013BFCD11B
:106890006CE72A48114605F0F7FE237823B9A023B8
:1068A00000BF013BFCD161E74FF4487300BF013BDF
:1068B000FCD15BE72348102105F0E6FE237823B9DD
:1068C000A02300BF013BFCD150E74FF4487300BF49
:1068D000013BFCD14AE71B48114605F0D5FE237861
:1068E00023B9A02300BF013BFCD13FE74FF448731D
:1068F00000BF013BFCD139E71248402105F0C4FE3E
:10690000237823B9A02300BF013BFCD12EE74FF42D
:10691000487300BF013BFCD128E70A48082105F075
:10692000B3FE237823B9A02300BF013BFCD11DE7B0
:106930004FF4487300BF013BFCD117E7001402403D
:106940008A43002000000240000C02400008024080
:10695000002B7FF46EAF039A22F8023B019B039257
:106960000133062B01937FF40DAEDFF834A1002430
:1069700052462346029D32F8020B35F8021B02955F
:1069800001338842DBB21CBF22F8021C0124062B13
:10699000F0D1DFF810813E4D98F80070DFF80891D3
:1069A00000232B70002F70D0FFF784FC394A136846
:1069B0001060C31AFF2B66D85BB337490968002201
:1069C000DBB288F8002089F8002001F1600E9446BF
:1069D000934601F10F06481E019610F8016F46B16B
:1069E000B34233BFF61A80F800B03A46067038BF9B
:1069F000BC46019EB042F0D110317145E9D112B1CF
:106A0000012389F80030BCF1000F02D0012388F87F
:106A1000003044B93C4699F800308BB31CB9FFF7FD
:106A200049FC1C4B18601C4B1C4E1B68002189F84C
:106A3000001003F1600C4FF0010E4FF014093AF80A
:106A4000027B36F8024B002267400EFA02F0074242
:106A500009D013F802B0BBF1000F04D1604003F875
:106A6000029084B201210132102AEED110339C45EC
:106A700026F8024CE3D119B101232B7088F80030BD
:106A800009B0BDE8F08FFF2397E7002CC3D0C6E71D
:106A9000714300206C4300206443002072430020B7
:106AA0007E43002070430020684300202DE9F04120
:106AB000754D2B78002B00F0DE80744E744C3778C7
:106AC000002F40F0A8804FF422622521204607F0D5
:106AD0009EF83946E02204F5226007F098F86D48E8
:106AE00040F68A024FF4806105F0CEFD302383F337
:106AF0001188694A136813F001011CD143F00103A6
:106B00001360664B9160D1601A6B654842F4800255
:106B10001A631A6D42F480021A651B6D614B0122E3
:106B2000C3F80021C0F800219A6822F00F029A6091
:106B30000E225A609960002181F311885A4AD36964
:106B400003F13C00574B186143F2B0105C61986050
:106B50004FF43060D8602E20C3F80401986840F0EC
:106B600001009860302383F3118810784F4B5360F5
:106B700001284FF087039360D160D3697DD14749E5
:106B8000486C40F001004864486E40F001004866DF
:106B9000486E486A40F001004862486A20F00100EF
:106BA0004862496A4249516146F668019961D96172
:106BB000517E11B14FF48061196051693D48B1FBBC
:106BC000F0F101399962177E8621D96200204FF4D5
:106BD00080714FF0010C58601962C3F814C018613D
:106BE000D96017B14FF400415964196841F085012B
:106BF000196002231370002383F31188302181F37D
:106C00001188D16841F00401D160D269D36383F364
:106C1000118801233370284A082140F6282692F86B
:106C2000018092F800E092F802C06018002348FA50
:106C300003F717F0010F0CBF25275627C7714EFA2F
:106C400003F717F0010F0CBF2527562700F8017D29
:106C50004CFA03F717F0010F03F101030CBF2527CE
:106C60005627082B0774E2D11831B14202F1030212
:106C7000D5D100232B70BDE8F08119605963996369
:106C8000D9631964596293E7301E0020EB1C002081
:106C9000EA11002000000240C41F0020003802401A
:106CA00000640240006002403C200020B8E400087C
:106CB00000E6DF0C00F36F06EC1C002070B52B4BD8
:106CC0002B4A1B7812782B4C2B4D134323702B78B7
:106CD00053B3FFF7EFFA294B1B88C01A80B241F279
:106CE0008733984201D9FDF729FE23782A78134388
:106CF0002370234B1B78002B35D0224B93F90030A7
:106D0000002BB4BF1E2306231F480022511C10F87D
:106D1000015B013BC9B2002D18BF0A4613F0FF0307
:106D2000F4D10AB1FDF70AFE18491248202207F0F3
:106D3000BBF8D0B10F491548202206F0B5FF144B1F
:106D40001B6893B10E4A127842B10E4A92F90020A4
:106D5000002ABFBF2278627007222270BDE870400F
:106D60005B68044818470623CEE770BD094300203E
:106D7000104300207011002008430020144300201D
:106D8000E40D002060430020721100209C4200208E
:106D90009842002008B5034600285AD082280FD117
:106DA000FFF74EFA810754D53920FDF743FDFFF771
:106DB00085FF3920FDF772FDBDE80840FFF77EBF73
:106DC00083280AD1FFF73CFAC20742D55320FDF7CA
:106DD00031FDFFF773FF5320ECE784280AD1FFF75A
:106DE0002FFA430735D54720FDF724FDFFF766FF4F
:106DF0004720DFE7021FD2B2A02ADBD900F1200230
:106E0000D2B2072A07D800F0070301209840C0B289
:106E1000FDF78CFDD0E700F15B02D2B2022A04D864
:106E2000BDE808400020FFF70FBA00F15802D2B2C7
:106E30001A2A04D8BDE808400020FFF71FBA3333F0
:106E4000DBB2122B05D8FDF7EBFFBDE80840FFF7DA
:106E500095BA08BD28B1034B1A7810431870FFF794
:106E60002DBF70470943002008B528B1FDF75EFD2E
:106E7000BDE80840FFF722BF08BD00008318B3F546
:106E8000005F10B40C4605D803490144204610BCED
:106E900006F00ABF10BC7047C820002007B50023C9
:106EA00001220DF107018DF80730FFF7E7FF9DF88C
:106EB000070003B000BD08B52520FFF7EFFF262827
:106EC00001D0002008BDFFF7E9FF0528F9D12720F0
:106ED000FFF7E4FFA0F1280358425841F2E708B554
:106EE0002820FFF7DBFF08BD092838B517D805298A
:106EF00015D80F2A13D8520002EB41124FF0C003ED
:106F000010FB032404F12900FFF7C8FF054604F134
:106F10002A00FFF7C3FF40EA052080B238BD0020F9
:106F2000FCE782B0ADF80410C1F30721052908D8A9
:106F30009DF804200F2A04D8092802D802B0FFF7D0
:106F4000D3BF002002B070477FB5114BADF80400ED
:106F50001D88104B1B881D43ADB2092445FA04F36C
:106F6000DB0705D4013CF9D20026304604B070BDE1
:106F7000BDF80430ADF80C30E6B203993046FFF7A7
:106F8000D0FFFDF7CDFD80B20128EBD0EDE700BFCB
:106F90000E4300200C43002013B502884379ADF85E
:106FA0000420019873B169B1FFF7CEFF0446014692
:106FB0000198FDF7A9FB0199204602B0BDE81040F9
:106FC000FFF7AFBFFDF7CAFB0446F4E71FB5ADF806
:106FD00004000198FFF7B8FFBDF80430ADF80C309D
:106FE0000399FFF79EFF05B05DF804EBFDF798BD30
:106FF00008B503792BB30088FFF7E8FFC3B2C0F3ED
:107000000330062812D094BF0E30063000F00F0077
:10701000012812D8F02B12D004D8E72B8CBF002007
:10702000012008BDF43B58425841FAE7F12B18BF44
:10703000E72B94BF01200020F3E70020F1E70120B7
:10704000EFE71846EDE707B5002302220DF1060130
:10705000ADF80630FFF712FFBDF8060003B000BD23
:10706000436B10B4DA6F10680178042913D1197AD0
:10707000022910D11179048901228A4022420AD1C1
:107080009A6D5C6D944201D11B6D23B910BC52F80E
:10709000043B05F08AB810BC7047000008B54FF4F7
:1070A00000520448002106F0B2FD034B42F20802F0
:1070B0001A6008BDC8200020C8400020074B1B787C
:1070C000023043B1064B93F90030002B03DA1E2245
:1070D000002106F09CBD0622FAE700BFE40D002067
:1070E000604300200F4B104810B500241C70FFF7C0
:1070F000E5FF2046FFF7A8F82046FFF7BFF80B4B47
:107100001C70FFF7DBFD21460948062206F07FFDD3
:10711000084B1C70084B1C70084B1C70BDE81040DD
:10712000FFF72CB909430020701100201043002004
:10713000EF420020EE420020ED420020EC42002011
:1071400038B5302383F311882A4CD4F850010268F3
:107150001378042B37D194F8DC30022B33D101792A
:10716000128901238B4013422DD1D4F82831D4F851
:107170002C519D4227D1D4F8243123B3D4F8403187
:107180000BB3043B5B1B1ED02B60D4F82431D4F826
:107190003411013BC4F82431D4F8303129449942E8
:1071A000C4F8281120D200238D42C4F8403118D1F0
:1071B000D4F82411A9B11D46027E42B901790068B4
:1071C0002A4604F0F2FF002383F3118838BD0269D8
:1071D0000021D21AE81806F01AFDD4F8500103690C
:1071E000ECE755F8043BE7E7D4F83C11C4F8281164
:1071F000D9E700BF900C00202DE9F04F914B924E43
:107200001B7891B08342019045D1904A337812782F
:1072100003F001039B1A18BF01238D4D6A78AB70F0
:1072200073799A4205D00022114610466B70FEF722
:10723000F9FE019A2C2A37D8DFE812F02F00480017
:107240007D00C700120151019F01A301A501A90101
:10725000AB01AF01B101B301B501B701B901BB0188
:10726000BD01BF01C101C501C701C901FF0136024E
:10727000870289028B020C03B7036804FF049F0591
:10728000A405A605B105B405BB05BD05C405C60525
:10729000CD05CF05D6050123BFE7AB7823B100228A
:1072A00011461046FEF7BEFE0020694B1A780132E7
:1072B0001A7040B9674A9B78022111701BB9019B73
:1072C0000BB90323137011B0BDE8F08F2E7862491B
:1072D000DFF888A106EB860306EB43067600F6B2DC
:1072E00006F11600C4B26C2C4FF003020FA8A046A2
:1072F00028BF4FF06C0806F0D7FC0F98FDF782FE10
:107300005FFA80F9C0F3072BC0F30747F3B2984543
:1073100004D86B2C8CBF00200120C6E76B781AF8CC
:1073200006201A4205D03B464A4659463046FEF7EB
:1073300005FB0136EAE72B787778B1788DF83C7059
:1073400003EB830203EB42035B005FFA83FBF278FB
:107350008DF83D100BF116048DF83E20E4B26C2C34
:107360000F98A04628BF4FF06C08FDF74BFE32790E
:107370003A4EC0F307430493BB188DF83C305FFAD4
:1073800080FAC0F307290F98FDF73CFEC3B20293C1
:10739000C0F30743C0F3072703935FFA8BF39845C5
:1073A000B7D916F80B306A7813420BD0D90745BF0E
:1073B000039B029A049B39465CBF52464946584695
:1073C000FEF7BCFA0BF1010BE7E72F78DFF88C80B2
:1073D00096F8029096F803A007EB870307EB4307A4
:1073E0007F00FFB207F11600C4B26C2C234628BF01
:1073F0006C23029333799B080393A8F1D70B029A6D
:10740000FBB29A4285D96B7818F807201A4217D038
:107410001BF81720039973788DF83D90120902FB31
:1074200001338DF83C308DF83EA00F98FDF7EAFD52
:10743000C0F30743C2B2C0F307213846FEF77EFA15
:107440000137DCE7630C002000430020620C0020C1
:10745000640C0020E50D002001430020C0E8000876
:107460002F78DFF88C8396F802A096F8039007EB4C
:10747000870307EB43077F00FFB207F11600C4B292
:107480006C2C234628BF6C23029333799B0803930B
:10749000A8F1D80B029AFBB29A427FF63AAF6B780A
:1074A00018F807201A4218D0039B1BF817208DF8F4
:1074B0003DA012FB03F273788DF83E9003EB52135C
:1074C0008DF83C300F98FDF79DFDC0F30743C2B225
:1074D000C0F307213846FEF731FA0137DAE72F7893
:1074E00096F8039096F801B096F802A007EB870390
:1074F00007EB43077F00FFB2BC4B07F11600C4B295
:1075000018883379DB0858436C2CC0F30720A04659
:1075100028BF4FF06C08FDF703FE0206A0F18003C0
:107520005CBF6FF07F031B1A5B00DBB213FB09F338
:107530001B128DF83CB08DF83DA08DF83E300F98B1
:10754000FDF760FDBB46AA4F5FFA80FAC0F307293A
:10755000C0F307465FFA8BF398457FF6DAAE6B7897
:1075600017F80B201A4205D0334652464946584672
:10757000FEF7E4F90BF1010BECE79E48FEF7CCFABD
:1075800093E69D48FAE79D48FEF758FA8DE69C4839
:10759000FAE79C48FEF7D4F987E69B48FAE79B4850
:1075A000ECE79B48EAE79B48E8E79B48E6E79B480F
:1075B000F0E79B48E8E79B48E6E79B48EAE79B48FB
:1075C000FEF70EFB71E69A48FAE79A48F8E72B783F
:1075D00003EB830203EB42035B00DBB2AA7803F107
:1075E0001600C4B2E2B93379804A10331288FF2BF7
:1075F00028BFFF235343C3F30F230A22B3FBF2F147
:1076000002FB11339BB2002B7FF483AEFDF778FDB4
:107610004FF06C0310FB03F00012FEF795FC78E6C8
:107620006C2C26461D4628BF6C26B542BFF671AEAF
:107630002846FEF789FC0135F7E72B7803EB830238
:1076400003EB42035B00DBB2AA7803F11600C4B27D
:10765000EAB93379654A10331288FF2B28BFFF231C
:107660005343C3F30F230522B3FBF2F202EB820272
:107670009B1A9BB2002B7FF44CAEFDF741FD4FF0FF
:107680006C0310FB03F00012FEF79CFC41E66C2C2F
:1076900026461D4628BF6C26B542BFF63AAE2846A0
:1076A000FEF790FC0135F7E72F78634907EB870376
:1076B00007EB43077F00FFB207F11600C4B26C2C42
:1076C0004FF003020EA8A04628BF4FF06C0806F04A
:1076D000EBFA464B96F8019018883379DB0858434B
:1076E000C0F30720FDF71CFD0606A0F180035CBF78
:1076F0006FF07F031B1A5B0003F0FE0303EB4303F1
:1077000009EB93198DF838900E98394EFDF77AFCF5
:10771000C0F307238DF83C00C0F307408DF83D30DF
:107720008DF83E00FBB298457FF6F3AD6B78F25DC5
:107730001A4208D09DF83E309DF83C209DF83D103F
:107740003846FEF7FBF80137ECE73C4816E73C48C3
:1077500014E728783B4F013000EB800300EB430037
:10776000224BD3F800803B6840009845C4B27FF6B6
:10777000D0ADFDF7C5FC4FF06C0310FB03F0324BAE
:107780006A7803EB20234FEA202993F8383113421B
:107790003FF4BFADFDF7B4FC810757D4FDF7B0FC53
:1077A0000146FDF7ADFCF27840F357037F338DF8C7
:1077B0003C108DF83D308DF83E200F98FDF722FCEF
:1077C000C0F30743C2B2C0F307214846FEF7B6F83C
:1077D00033791033FF2B28BFFF231B094FF4FA72B4
:1077E000B2FBF3F343443B6093E500BFC01F0020AE
:1077F000C0E80008B951000815520008715200088D
:10780000B7520008FD520008415300088553000894
:10781000AD530008E1530008195400086D540008E6
:107820009F540008EB5400081B55000851550008F0
:10783000A1550008F15500080143002059560008E1
:10784000B5560008381E002088E7000800221346BD
:107850001146ACE7A24BDFF8AC92D3F800A0D9F800
:10786000003053453FF620ADAB789E4FB3BB287830
:1078700000EB800300EB43004000C0B200F11604AF
:10788000E4B26C2C00EB4008A346B84428BF4FF08C
:107890006C0BC3B25B4559D36B2C7FF63AAD924962
:1078A00040F24112C81E06F099F9FDF729FC830742
:1078B0005FD5002387F8413187F8423187F843319B
:1078C00033791033FF2B28BFFF231B0940F6B83252
:1078D000B2FBF3F35344C9F800301AE50022114615
:1078E0001046FEF79FFB0024B846A346FDF708FCB0
:1078F00082070BD588F800B088F801B088F802B08C
:1079000001346C2C08F10308F0D1B0E7FDF7F8FB67
:107910008DF83C00FDF7F4FB40F35700F3788DF849
:107920003E307F3004EB44028DF83D00BB180F98C9
:1079300003920293FDF766FB039A029BB854C0F3CF
:107940000722C0F307405A709870D9E7674A6B78EE
:10795000125C1A4209D098F8023098F8002098F882
:1079600001100290FDF7EAFF029808F103080130C8
:107970008FE7FDF7C5FB8DF83C00FDF7C1FB40F339
:107980005700F3788DF83E307F308DF83D000F982A
:10799000FDF738FBC0F3072387F84101C0F3074028
:1079A00087F8423187F843018AE7AB7823B1002298
:1079B00011461046FEF736FB2B78013303EB8302AA
:1079C00003EB42035B00DBB20493454B1B6803935C
:1079D000474B039A1B689A426DD94649DFF82891B4
:1079E000454C03220FA806F05FF90F98FDF70AFB3C
:1079F000C0F30727C0F307468DF839708DF83A6059
:107A00008DF83800C5B2FFB2F6B204F10F0B029444
:107A1000CA464FF00008029A1AF8013B12F8010B0F
:107A20000292002B4AD033462A463946FDF786FF9C
:107A300033462A46394608F101089BF800005FFAF0
:107A400088F8FDF77BFF9AF800300AF8013CB8F19E
:107A5000070F0BF1FF3BDED199F80780E079B8F111
:107A6000000F34D033462A463946FDF767FF3346C8
:107A70002A463946207AFDF761FFFDF741FB10F0F9
:107A8000030F0CBF0123002389F807301B4B103470
:107A9000A34209F10809B8D1194B1B791033FF2B08
:107AA00028BFFF2340F6B8321B09B2FBF3F3039A59
:107AB00013440F4A1360049B6B2B2BE41A461946A0
:107AC0000593FDF73BFF059B1A461946B3E743466E
:107AD00042464146FDF732FF434642464146C9E72A
:107AE000C01F00203C1E00203F1E0020C0E80008F0
:107AF000B41F00200143002088E70008E8E70008E1
:107B000000430020801F0020841F00202C7804EBFD
:107B1000840304EB43046400E4B204F116035FFA47
:107B200083FB5B466C2B28BF6C230393AB784BB174
:107B3000002211461046FEF775FAAC48602200217B
:107B400006F065F82B787BB9A94D2E88FEF7B2FBBD
:107B5000801B80B21828A74B8CBF012200221A700C
:107B600002D9FEF7A7FB28800026B046A24BF318E7
:107B700002939E4B002706EB0309029B13F801AB0F
:107B80000293544547D8039B534544D99A4B9B4A8B
:107B90005344527893F8383108F1010813425FFAE0
:107BA00088F838D099F80050954905F1AA03FF2BC1
:107BB00028BFFF2303EB43038A78C9788DF8392067
:107BC0000233A5F15500DBB2002813FB01F36FF07F
:107BD0005501A8BF091A1B0A8DF838108DF83A30E4
:107BE0000E98FDF70FFAC0F30721C0F307438DF895
:107BF0003C008DF83D108DF83E30C2B2DBB2C9B208
:107C00005046FDF79BFE7B4B1B7823B1013D25EAD7
:107C1000E57589F800500137FFB2102F09F101090D
:107C2000ABD1502E03D1BBF16B0FFFF773BBB8F193
:107C3000150F06F1100699D9F5E7F47804EB440323
:107C40009F109B080393FF23B3FBF4F30293AB78DD
:107C50006C4D5BB1002211461046FEF7E3F9634814
:107C60006022002105F0D3FF00232B70664EDFF861
:107C70007CB13378013333704FF0000A5E4B5344CC
:107C80000493E31BD9464FF0000805932B7848EA8C
:107C90000303DBB2002B37D105F01CFA5B4B984293
:107CA00032DC8BF80040049A4FEA0813D05CFF28BE
:107CB0000ED099F80020039B934234D2D31B7B4310
:107CC000059A93FBF2F32246DBB21946FDF736FE26
:107CD00008F10108B8F1060F09F11009D6D10AF12F
:107CE000010ABAF1100F0BF1010BC7D13378029AD8
:107CF000934204BF002333702B780133DBB21C2B7B
:107D000018D82B70FFF7D0BA99F80030002BCAD0E2
:107D10009C42C8D9327802998A4204BF03F1FF33EA
:107D200089F80030BFE712FB04F20023B2FBF7F240
:107D3000D2B2CAE700232B70354D0523661E3548A5
:107D400029461022052B04D190F800C0644508BFD5
:107D5000067011F801CF013AA44524BF0E700C74CF
:107D600012F0FF0200F10100ECD1013B13F0FF0320
:107D7000A5F11005E3D1FFF797BA2748FDF7A4FF57
:107D8000FFF793BA2548F9E7254B264918780138BB
:107D900020EAE070C0B2FEF723F8FFF786BA214967
:107DA0000020F8E71E4B20491878013820EAE070DF
:107DB000F0E71D49F4E71A4B1C491878013820EA0E
:107DC000E070E7E71949EBE7154B194918780138D6
:107DD00020EAE070DEE71649E2E7114B1549187812
:107DE000013820EAE070D5E71249D9E7F8410020D0
:107DF000BA1F0020B81F002088E70008640C00208C
:107E000000430020BD1F0020BC1F00205455550515
:107E10003742002048420020055700083957000823
:107E2000014100206B570008B3570008255800088F
:107E30009D580008E958000800230375826803690B
:107E40001B6899689142FBD25A68036042601060D7
:107E500058607047F8B5046805460E460027AC42E6
:107E600000D1F8BDE3683343E36023691E420AD0C2
:107E70006068A368C2691343027DC3610A2A04D102
:107E80008269134206D12468E9E70B2AFBD1826993
:107E90009A43F8D18761FFF7CFFFF4E708B53023A5
:107EA00083F311880A7D0023052A06D8DFE802F053
:107EB0000C050503130F8A6913604FF0FF338B61C4
:107EC0000846FFF7B9FF002383F3118808BD8A69CC
:107ED0009368013393604A680B6813605A60ECE75B
:107EE0000368984207D01A680260506000229A61C5
:107EF0001846FFF7A1BF704701F10B032DE9F041D0
:107F000050F8234005460E4644B3302383F31188CE
:107F10000821201DFFF79EFF05EB8603D3F80C8098
:107F2000D8F814301F687FB1226DA36D013222652D
:107F3000226E1344E26DA365934224BFA36EA36532
:107F400004F14400FFF7CCFFA26D636D934207D1AB
:107F5000236D2BB15FB9002383F31188BDE8F08155
:107F600052F8043B3146284604F01FF9F3E7B8F80D
:107F70001030013B3B42EED1E36F1B7E002BEAD178
:107F800005F18002EEE738B504466FF00105206880
:107F9000844200D138BD036823605C608561FFF7CF
:107FA0004BFFF4E710B4C26F034610680178042950
:107FB00014D1197A022911D15179448901228A40B8
:107FC00022420BD1DA691C6AA24201D19C692CB908
:107FD0009B6A10BC043B043204F0D5B810BC704757
:107FE000406BFFF7DFBF133110B550F821402CB3C1
:107FF000302383F3118804216018FFF72BFFE26F11
:108000001368527903EB820304F10C00DB689B696F
:108010005A68E3691A60A2690132A261A26A134434
:10802000626AE361934224BF236BE361FFF758FF69
:108030002046FFF7B7FF002383F3118810BD00002F
:10804000054BD9680875186802681A6053600122E8
:108050000275D860FCF766B96820002038B500F1D9
:108060000C05302383F31188174B4169DC6891B903
:10807000236A44618361256221E08B600B7D7BB1C3
:10808000062B14D10B684A68886913605A60FEF7A2
:108090003CFA8B699968A3688A689342EDD806E038
:1080A0004A680B68136008465A60FFF7C5FE284609
:1080B0002146FEF72AFAA5610620FFF7C1FF00203E
:1080C00080F3118838BD00BF682000202DE9F843F7
:1080D00000EB810681465069F2600D46144618B1E6
:1080E0001422002105F093FDA06918B1142200218B
:1080F00005F08DFDF368D9F890401E6806F0030680
:10810000721E04EB4511022A4FF0000205F1100027
:10811000C1F8102B4FF0010298BFB60402FA00F22A
:1081200098698EBF304E06F1805606F5004600284D
:1081300039D0588A05F15801490130436050D4F8CC
:108140001C180A4304EB4517C4F81C280022C7F882
:1081500010295A694FF0010808FA05F872B31F8A0E
:108160009B8BBA08012B88BF5A43D9F89830D11895
:1081700043EA024305F13F02C9F8981004EB82027A
:10818000294647EA855748356D01536020463743F5
:1081900004F046FD6751D4F81C3843EA0803C4F8DC
:1081A0001C38BDE8F883D1F8000B20F40040C1F87A
:1081B000000BD4F81C1821EA0202C3E705F13F03C3
:1081C00004EB8303094A5A602946204604F028FD3F
:1081D000D7F8003923F40043C7F80039D4F81C3825
:1081E00023EA0803DBE700BF008000100004000260
:1081F00038B50546052900F28D80DFE801F0708B67
:1082000017707003302383F3118843480121FFF76F
:1082100021FE424A002382F8E83082F8203183F3BD
:1082200011880520BDE83840FEF73EB9302383F3BE
:1082300011883A4C3A4A0121FFF748FF394A042194
:108240002846FFF743FF94F8B41004F1440228468F
:10825000FFF73CFF94F8B51004F168022846FFF7D9
:1082600035FF94F8B61021B104F18C022846FFF7CF
:108270002DFF0025D4F804312B48C4F8F430C4F89D
:10828000F030C4F8EC50C4F80851C4F80C51FFF7B2
:108290007AFED4F83831C4F824312448D4F83C317B
:1082A000C4F82C31C4F8283184F8E850C4F840519F
:1082B000C4F84451FFF767FE0121174884F82051A4
:1082C000FFF7C8FD1A48FFF76DFE85F31188194BBB
:1082D0001B7813B10520FEF7E7F80220A2E7084655
:1082E000FEF7E2F8302383F311880C4C0A48022190
:1082F000FFF7B0FD012504F1E00084F8E850FFF736
:1083000042FE04F58C7084F82051FFF73CFE0023F8
:1083100083F3118838BD00BF680D0020900C002049
:108320004CE1000828E10008700D0020A80D002095
:10833000640D00205A4100207047000010B5624CC7
:1083400062492369624843F02F032361236923F0C4
:108350002F0323612369236B43F02F032363236DD2
:1083600043F02F032365236D03F0CFFF59495A488B
:1083700003F0CBFF59495A4803F0C7FF59495A48FF
:1083800003F0C3FF59495A4803F0BFFFD4F8A430A3
:1083900043F03003C4F8A430236843F001032360A2
:1083A00023689807FCD5236803F0FD03236004F0DD
:1083B0000DF804F06BF8D4F8A430C4F8A430A36826
:1083C000A360414B9A6812F00C0FFBD14FF0804232
:1083D0009A601A6822F0867222F480321A6040F2A3
:1083E000C1725A60D3F8A02002F4A042C3F8A020C2
:1083F000D3F8A02042F47022C3F8A0204FF41F024B
:10840000DA60D3F8A42022F03002C3F8A420394A5D
:108410004FF4AB7111601A6C42F080521A64364A04
:10842000032111611A6842F480321A60264B1A68DF
:108430009103FCD5314A5A601A6842F080721A6082
:108440001A689201FCD59A681F4C42F0804242F4AF
:1084500041229A60D3F8A02042F40032C3F8A02051
:10846000D3F8A42042F03002C3F8A4209A6842F066
:1084700002029A60A36803F00C03082BFAD1D4F827
:10848000A43023F03003C4F8A43003F09FFF03F0BE
:10849000FDFFD4F8A43023F48063C4F8A430D4F8EA
:1084A000A4304FF0E02243F48063C4F8A430136991
:1084B00043F004031361636C43F480436364636EAD
:1084C00043F48043636610BD0038024088E0000832
:1084D00000000240A8E0000800040240C8E00008D4
:1084E00000080240E8E00008000C024008E1000833
:1084F00000140240003C0240007000400112424063
:108500007047FEE7114AF0B508200026516813684D
:108510009468043B0D46AC4210D8E31C5B1ACD1E98
:1085200023F00303AC4238BF00230B44D1689942C7
:1085300009D8013802F11002E8D1F0BD53F8047FE8
:1085400045F8047BE7E743F8046BF0E708E0000830
:10855000034A516853685B1A9842FBD8704700BFC2
:10856000001000E070B5302383F31188314D324B99
:108570006B602422002105F10C0005F048FB2B78EC
:10858000012B50D12D4BD5F890401A6B42F0005280
:108590001A631A6D42F000521A651A6D1A6942F098
:1085A00000521A611A6922F000521A611B69244BA9
:1085B000E02283F84D234FF40052C3F888219A60DB
:1085C000204BE3604FF00873C4F800380023C4F870
:1085D000003EC02323604FF40413A3632369002BE0
:1085E000FCDA012323610C20FFF7B2FF2369DB07CC
:1085F000FCD41220FFF7ACFF2369002BFCDA002625
:108600000C48A66004F03AF90F4BC4F81068C4F89F
:108610001468C4F81C68A3614FF0FF336361A3685A
:1086200043F00103A36002232B70002383F311881E
:1086300070BD00BF5C41002078E7000800380240B0
:1086400000E100E000270040083C30C010B503689E
:108650009C68A2420CD85C688A600B604C60216008
:1086600059609968891A99604FF0FF33836010BD93
:108670001B68121BECE70000022910B538BF02216D
:1086800002234FF0804442186263626A101A8142EA
:1086900003D8591C0B461046F5E7022B81BF034A4D
:1086A000D36A43F00103D36210BD00BF68200020ED
:1086B000184A1369984210B40ED003684168846860
:1086C0000B605960996821449960002303604FF062
:1086D000FF33936110BC70471346016843F8101FC5
:1086E00000244B6004601169994203D14FF080432C
:1086F000DC60EFE78B68806803448B604FF080415B
:10870000486AD169421A9342E4D9091A10BC194443
:10871000FFF7B2BF6820002070B5134D05F11003BC
:10872000E96143602B698260022A036038BF02223C
:10873000586028614FF080408B1843630023036129
:108740000223C360446A661A964205D35A1C114438
:10875000416313462146F5E7022B82BFEB6A43F0E3
:108760000103EB6270BD00BF68200020F8B5114F17
:108770003C464FF0804354F8106F5B6AA6420546B2
:108780000A4604D11946BDE8F840FFF7C5BFFC69A9
:10879000B2681C1B0C1928BF0C46A24202D918460D
:1087A000FFF76AFF224629460348BDE8F840FFF775
:1087B0004DBF00BF682000207820002070B5094C14
:1087C000236805460E4613B12046FFF771FF064B9E
:1087D000E36000232661636129460248BDE87040DA
:1087E000FFF7C4BF2C4100208589000870B590F8C0
:1087F000803003F07F02212A04467AD113F0800FE3
:1088000090F881202ED0022A2AD0032A1CD0012AD7
:108810006FD190F884204AB1022A90F882200CD0BF
:108820004D4B63671A7094F886300BE04B4B4367EF
:108830000823A367E267012070BD022AF0D1484BEC
:10884000436706230022F4E790F88420002A50D1E1
:1088500090F88520002A4CD1424B63670123F1E751
:10886000414BFAE70A2A39D00B2A0BD0092A63D1E7
:1088700090F8842012F0FD0F5ED13C4B43673C4AD8
:108880000223D6E790F884302BBB90F8853013BBD9
:1088900090F882509D4208BF1A46324B18BF012201
:1088A0001A7018D1304B1A78AAB1302282F311888D
:1088B00030491E78AC4640F2E730E6FB010C4FF43D
:1088C0007A7200236146FBF79BFD21468000FFF78B
:1088D00075FF85F3118800236367B3E72649224BB0
:1088E000097890F883201A70C1F3C0150906F2D4F4
:1088F000DAE7812B20D194F88120062A1CD194F844
:108900008520616894F884304D6894F8831043EAB8
:108910000223204694F88220A847D8B143686367B1
:1089200003688FE7222B15D1002363671A4680E77F
:10893000124B6367072385E7114A92F8B6204AB1C4
:1089400003F06003202B05D194F88130212BE9D866
:108950001F2BEDD800206FE791110020B7110020E8
:10896000B1110020E40D002090110020D81100204A
:10897000D1640008A086010060430020000C0020A4
:10898000900C002038B50C46302383F311880B7807
:10899000042B03D0002383F3118838BD134B1B78BD
:1089A0001A06F7D4124D2B78002BF3D0114B1B78FD
:1089B000002BEFD00B899B0705D40F4A0823012118
:1089C000204603F0F2FB2D780C4940F2E7304FF0DF
:1089D000000CE5FB010C4FF47A7200236146FBF7B3
:1089E0000FFD21468000FFF7E9FED3E7604300203A
:1089F00090110020E40D0020B7110020A086010096
:108A000030B50E4BDC684B1C87B0054612D00C4BC2
:108A100003936846002305930494FFF7A7FE2846B6
:108A2000FFF70EFB009B13B16846FFF741FEA069FC
:108A300007B030BDFFF704FBF9E700BF6820002056
:108A40009D7E000870B5302304460D46164683F31C
:108A5000118812490B78042B03D0002383F311886B
:108A600070BD0B890120A04018420FD001EB84019A
:108A70000B4ACB68D068596941F80C0F81614FF4FB
:108A80007A710320FFF7BCFF0130E6D0034833467C
:108A90002A46214603F089FBDFE700BF5C41002046
:108AA0006820002010B50D4B1B78044653B90146D1
:108AB00008220120FFF7C6FF20222146084805F0C2
:108AC000F3F810BD074B93F90030002BA7BF082225
:108AD0000120202204202146ECE700BFE40D002005
:108AE000B71100206043002010B50146044606225D
:108AF0000420FFF7A7FF06222146024805F0D4F81C
:108B000010BD00BFB1110020014603220420FFF771
:108B100099BF08B50146302383F311880820FFF779
:108B20006FFF002383F3118808BD000010B50446D1
:108B3000002800F09180822814D1FDF781FB810785
:108B400000F18A803920FBF775FEFEF7B7F84FF485
:108B5000FA50FFF7DEFF3920FBF7A0FEBDE810401A
:108B6000FEF7ACB883280ED1FDF76AFBC20773D4B9
:108B70005320FBF75FFEFEF7A1F842F21070FFF7FB
:108B8000C8FF5320E8E784280ED1FDF759FB4307BF
:108B900062D44720FBF74EFEFEF790F842F21070C9
:108BA000FFF7B7FF4720D7E7031FDBB2A02B24D87E
:108BB0002A4B1B7863B92A4A002312F8011FA142ED
:108BC00015D00133062BF8D12046FBF733FEC5E75D
:108BD000244B93F90030002BEDDA234B03EBD00349
:108BE00000F007019A7801238B401A42ECD020460E
:108BF000FBF754FEFEF762F8E6E700F12003DBB274
:108C0000072B08D8194A00F0070411780123A34064
:108C10000B431370A2E700F15B03DBB2022B05D814
:108C20002438BDE8104080B2FDF70EBB00F15803B8
:108C3000DBB21A2B06D80E4ABDE8104032F81300FA
:108C4000FDF71CBB3334E4B2122C05D8FCF796F8C0
:108C5000BDE81040FDF792BB10BD00BFE40D002041
:108C60007111002060430020701100200943002092
:108C70002CE9000838B53928054614BF00245024D3
:108C8000FFF754FF24B92846BDE83840FEF782B804
:108C90006420013CFFF73DFFA4B2F3E72DE9F0416A
:108CA0001F460C46244B164668B11970FDF702FBAF
:108CB000224B04F0070418800120A040C0B2BDE898
:108CC000F041FEF7C7B81D788D422DD11B4BB3F88C
:108CD0000080FDF7EFFAA0EB080080B2C72823D888
:108CE00006F12004B542E4B210D005F007000125DA
:108CF00005FA00F0C0B2FEF7B7F8072C06D806F068
:108D0000070305FA03F0C0B2FEF7A4F83846FFF7F0
:108D1000B1FF072C0DD806F007060120B040BDE8D2
:108D2000F041C0B2FEF7A0B804F007040120A04053
:108D3000F5E7BDE8F08100BFFC420020E81100200B
:108D40002DE9F7431C4F002401253B68A34203D8BB
:108D5000284603B0BDE8F083184E194B30681968F7
:108D6000036821445B699847D6F800808146D8F8AB
:108D7000003001A99B6940469847012809D049EA7B
:108D80000000C0B201288CBF002505F001050134A8
:108D9000DBE701980B4940F2E73C4FF0000EE0FBA7
:108DA00001CE4FF47A72002371466046FBF728FB30
:108DB000FFF7AFFEDBE700BF740C0020F04000209F
:108DC000780C0020A08601002DE9F347FFF7B8FFDB
:108DD000002864D0FCF7B0F8324E054600243188F4
:108DE0002046FCF7E3F8002857D00234B4F5005FC2
:108DF00006F10206F3D1DFF8ACC02B4ADFF8B0E091
:108E000042F201010020122601391CD1CDE9002EC9
:108E10006E4642F2080731882046FCF7C7F820B1B9
:108E20000234BC4206F10206F5D14000C4B2012D65
:108E300001D1FCF7A1F81D4B42F208021A6020464E
:108E400002B0BDE8F0871CF8013B5A40A2FB06388F
:108E50004FEA421A4FEA4E1949EAD26913EB0A0364
:108E600006FB0E8848EB09084FEAC21A9B184FEA26
:108E7000CE194FEA02274EEB080849EA526913EB74
:108E80000A034FEA0E2E48EB09084EEA126EDB1970
:108E900048EB0E0EBE44C218B6E70446C7E70446C8
:108EA000CDE700BFC820002025232284C840002031
:108EB000E49CF2CB044B1B68B3F5804F01D3FFF762
:108EC00083BF0120704700BFC840002010B5074C89
:108ED00001462068FCF76AF830B12368023323604A
:108EE000BDE81040FFF7E6BF10BD00BFC84000203E
:108EF0008318B3F5005F2DE9F34D04460E46154681
:108F000000F28B80464F07443946304604F0CCFFD0
:108F1000002800F082802A463146384604F0C4FE1C
:108F2000FCF70AF84FF0000A80464FF0000B012DC5
:108F30002CD0E3072AD4B4F5804F37D23378727837
:108F400043EA0223012B21D8002B0CBF6FF07F03D3
:108F50006FF05F0343EA5423002063F307006308C4
:108F600063F30F2080B2FFF7B1FF012806D1023D65
:108F700002340236002DDAD1FFF79CFFB8F1010F61
:108F80004BD102B0BDE8F04DFBF7F6BF3F2C0DD83A
:108F9000307844F04003DBB243EA0020FFF796FF4D
:108FA0000128EBD1013D01340136E3E7052D2F46C1
:108FB000C4F3024328BF052743EAC703CDE900AB4A
:108FC0003A468DF800303146230A0DF103008DF842
:108FD00001308DF8024004F067FEBDF80000FFF795
:108FE00075FF0128CAD1BDF80200FFF76FFF012805
:108FF000C4D1012D0DD0BDF80400FFF767FF012893
:10900000BCD1032D05D9BDF80600FFF75FFF01288D
:10901000B4D1ED1B3C443E44ACE702B0BDE8F08D5A
:10902000C820002013B50822044669461820FDF721
:1090300025FF08226946204604F036FF38B1082291
:109040002146182002B0BDE81040FFF751BF02B022
:1090500010BD000008B50348FFF7E4FF024B0022F3
:109060001A7008BD004300200041002010B5084CD4
:10907000084920461B2300F8013B032204F014FE9C
:109080004FF67F73A380BDE81040FFF7E3BF00BF3A
:1090900000430020C8DE00082DE9F0475C4CD4F8FE
:1090A0000080FDF707F98146A0EB0806FDF702F9FD
:1090B0002060584C08F57F4394F800C00021FF332E
:1090C000074665460846A3EB090ECBB29C4512D86D
:1090D00000B12570504B1B7813BB504B1B7813F01D
:1090E000010400D05C084E4D2B78032B26D8DFE816
:1090F00003F019277C8101F10C0204EB42020131DB
:10910000537892F8028043EA08239E4523BF9B19B7
:1091100053701B0A05F1FF3534BF01209370D4E76B
:109120000024E0E73F4B3B493F4800221A703F4B89
:1091300029221F6004F0B8FD01232B70BDE8F087E1
:109140002046FEF759F8002CF8D0364B1B78052B3B
:10915000F4D1FDF775F8830705D5FF231A461946A4
:109160001720FCF7EBFB324B5C78002CE6D1234652
:10917000224621462420FCF7E1FB234622462146D5
:109180002520FCF7DBFB2346224621462620FCF760
:10919000D5FB2346224621462720FCF7CFFB23465A
:1091A000224621462820FCF7C9FB234622462146B9
:1091B0002920FCF7C3FB2346224621462A20FCF740
:1091C000BDFB2346224621462B20FCF7B7FB234656
:1091D000224621462C20FCF7B1FB2346224621469D
:1091E0002D20BDE8F047FCF7A9BB2046BDE8F047BD
:1091F000FCF71ABF0F4B1B780BB1FFF72BFF0B4B84
:109200001C68FDF757F8001B0F2897D9002394E737
:10921000341E0020584200205B4100200043002003
:10922000E50D0020640C002001410020C01F00203B
:10923000F84200200041002037B50C460546FDF7F6
:109240002DFEA04207D001220DF1070128468DF81E
:109250000740FFF74DFE03B030BD10B5041E0CBF34
:10926000FF2126212520FFF7E7FF002C0CBFFF215F
:1092700005212620FFF7E0FF002C08BFFF21BDE8F5
:10928000104018BF28212720FFF7D6BF092838B57E
:109290001D4616D8052914D80F2A12D8520002EB01
:1092A00041124FF0C00310FB0324290A04F12900E6
:1092B000FFF7C2FFE9B204F12A00BDE83840FFF72A
:1092C000BBBF38BD2DE9F047DFF848800024474692
:1092D00000265FFA84F912E0032CD8BF37F8153066
:1092E000EAB2C8BF0123514648460135FFF7CEFF19
:1092F000102DF1D10136062E07F1200703D00025ED
:109300005FFA86FAE8E701340A2C08F1C008DED1DA
:10931000BDE8F087B8E1000810B540F2A974204616
:1093200000210134FFF788FFB4F5005FF7D110BDCD
:1093300008B50020FFF791FF28200021FFF77CFFF0
:10934000FFF7C0FFFFF7E8FFBDE808400120FFF787
:1093500084BF37B50C460546FDF775FEA04207D021
:1093600002220DF106012846ADF80640FFF7C0FDC8
:1093700003B030BD094A08B55378C3F38001814278
:109380000BD060F38203537004201188FFF7E1FFD4
:10939000BDE808400220FBF7ADBA08BD60430020DD
:1093A00037B5042200230C460DEB0201019305465C
:1093B000FDF764FD019B9C4206D004220DEB0201E7
:1093C00028460194FFF794FD03B030BD10B5FBF7BC
:1093D000B3FD0446FFF7B4FCFDF760FE012C03D19A
:1093E000BDE81040FBF7C8BD10BD000013B5FFF786
:1093F000EDFF4FF6FD710020FFF7ABFF00210220CB
:10940000FFF71AFF00210320FFF716FF204B00246F
:109410004FF4A05104201C80FFF79BFF214606203B
:10942000FFF70AFFFF210720FFF706FF214608206C
:10943000FFF7B6FF21462420FFF7FEFE2146172046
:10944000FFF7FAFE21460C20FFF7F6FE21460D201D
:10945000FFF7F2FE002200236846CDE90023FFF764
:10946000E1FD21462020FFF79BFF2046FFF7F5FE98
:10947000FFF75EFF21460F20FFF792FF054B40F2FA
:10948000011113201960FFF78BFF02B010BD00BF60
:109490000C430020F84200202DE9F04F037987B0FB
:1094A0000446002B00F0BC850121FDF775FD6579B0
:1094B0000346002D00F09885A0F5EE4292B27F2A77
:1094C00000F28185C5B20F2D6AD841F6FF70FDF715
:1094D000E5FC002864D140F2A976002D39D10DF1C8
:1094E0001009DFF868B30495C9F804503046FDF759
:1094F000D5FC00278DF810008DF8117000284FD092
:10950000012806F1010515D12846FDF7C7FC8DF8A5
:109510001100002844D0431EDBB2022B06F10205E5
:1095200026D82846FDF7BAFC8DF81200C0B3F51C0A
:109530008DF81370CA469AF80020BAB1012A70D18A
:109540009AF80120013A032A3ED8DFE802F04249A6
:109550004E53B6F5005F23D03046FDF79FFC08B1AF
:109560000136F6E76B1EDDB20136B6E72E46BDE7E3
:109570000428DFD102262846FDF790FC09F80600F2
:1095800070B17C2805F1010507D106F118030DEB38
:109590000306002306F8073CCCE70136072EEAD184
:1095A000A24B1B785D0700F03B856379002B00F030
:1095B00037859F4B5B785C0740F13285022007B00E
:1095C000BDE8F04FFBF796B90AF1010A0AF1010A6A
:1095D000B1E79AF80200FFF74DFB0AF1020AF5E73E
:1095E0009AF80200FFF7A2FAF7E79AF80200FDF7EF
:1095F000D1FBF2E78F489AF8022000260AF1020A0E
:109600000A27815C4B0706D4002EDFD06420013E80
:10961000FFF77FFAF8E7303A07FB06261AF8012F22
:10962000EFE7854B85489B5C0193D108844B1BF881
:1096300001605F5C10F8018002F0070216411741DB
:1096400048FA02F816F0010607F0010708F00108D1
:1096500006D07C490A7842F002020A70FDF72EFB20
:1096600037B178490A7842F040020A70FDF726FBCC
:109670000198FFF7FFFA27B14020FBF757F9FDF7F4
:109680001DFB26B10220FBF751F9FDF717FBB8F1DE
:10969000000F9BD02C20FFF7EDFA97E7012200F096
:1096A0009CBCE122262311462846FFF7F7FA77E70C
:1096B0002723E522E521F7E72623E122E021F3E74E
:1096C0002723E522E421EFE72623E122E221EBE74D
:1096D0002723E522E621E7E728230122EAE7002DF8
:1096E00000F06384584A0021A3F5E0461170B2B23D
:1096F000222A00F243840420FDF7A5FC4C4D013ED4
:109700002880212E12D8DFE806F04FCD5721255BA7
:10971000295F6B35C5396F3D73AC4177B4477D85A3
:109720002D6331674B81A3BEC31C53D52B7843F007
:1097300001032B7029880420FFF70BFEFDF7D2FCF4
:109740002EE76B7843F008036B70F3E72B7843F058
:109750000203EEE72B7843F00403EAE72B7843F0AB
:109760000803E6E76B7843F00103EDE76B7843F01D
:109770000203E9E72B7843F01003DAE72B7843F094
:109780002003D6E72B7843F04003D2E7FDF7AAFC8D
:109790002B7843F08003CCE72B7843F00C03C8E729
:1097A0006B7843F00303CFE72B7823F00103C0E786
:1097B0006B7823F00803C7E72B7823F00203B8E7A0
:1097C0002B7823F00403B4E72B7823F00803B0E7E9
:1097D0006B7823F00103B7E76B7823F00203B3E75C
:1097E0002B7823F01003A4E72B7823F02003A0E7C5
:1097F0002B7823F040039CE7FDF774FC2B7823F0D3
:10980000800396E72B7823F00C0392E76B7823F024
:10981000030399E72B78C3F3800282F00102D2B2EE
:1098200062F3820362F3C30383E700BF11430020A6
:10983000604300206BEB000882E9000862E9000841
:1098400062E9000809430020FC42002072E9000898
:109850006B78DA4302F0010262F3000362F3410322
:1098600072E72B78C3F3801282F0010262F3861351
:109870005FE7FDF737FC2B78C3F3C01282F00102DB
:1098800062F3C71355E701210E20FFF7D5FC51E71E
:109890000021F9E72B78C3F3001282F0010262F392
:1098A000041346E72B78C3F3000282F0010262F34F
:1098B00000033EE76B78C3F3C00282F0010262F35B
:1098C000C30341E747F6774293427FD10120FAF77D
:1098D00007FF03220221FAF767FF61E6974A127831
:1098E00002F02200A3F5F042203A142A6AD801A11E
:1098F00051F822F049990008699900087399000805
:10990000799900087F990008859900088B990008CB
:1099100091990008979900089D990008A39900085B
:10992000A9990008B3990008B9990008BF990008DF
:10993000A1950008A1950008A1950008A19500082F
:10994000A1950008A19500087D490B78C3F300029A
:1099500082F0010262F300030B707A4B00220120B7
:109960001A70FBF7E3FF1BE6774A7849FCF75CFCCB
:1099700016E6764A7449F9E7754A7649F6E7754A74
:109980007349F3E7744A7549F0E7744A7249EDE7A1
:10999000734A7449EAE7734A7149E7E7724A7349BF
:1099A000E4E7724A7049E1E701210846FCF754FBFD
:1099B000F6E501210520F9E701210D20F6E7012157
:1099C0001220F3E747F67742934274D047F6784285
:1099D000934274D095B147F65A42934200F0A28068
:1099E00076D847F60142934200F0958047F603424D
:1099F000934200F08980B3F5F84F7AD022886379DA
:109A0000ADF80C200398002B00F09080FDF79CFA35
:109A1000054601460398FAF777FEBDF80C30ADF81D
:109A200010300499DFF854812846FDF77AFAFBF7E5
:109A300077F898F8007094F806B0667917F0070781
:109A40000546CBF3031B22D0374606B3C5F30723E5
:109A500003F0F002402A0BD005F12002D2B2072A0F
:109A600068D9BBF1000F03D103F0E003202B63D0D2
:109A70003F4B5F7817F0040709D00220FAF73AFF4E
:109A800098F8003013F0070F0CBF01270027C5F32B
:109A90000339B9F10B0F00F29180DFE819F0710082
:109AA0007100C900C90053016B018F008F0075015F
:109AB000E701F701F7010120FAF71CFE04E002209C
:109AC000002DF9D0FAF70CFE03220221012002E753
:109AD00047F65B42934227D047F65C4293428DD1D2
